{
  "_format": "hh-sol-artifact-1",
  "contractName": "LumenDeiFund",
  "sourceName": "contracts/LumenDeiFund.sol",
  "abi": [
    {
      "anonymous": false,
      "inputs": [
        {
          "indexed": true,
          "internalType": "address",
          "name": "investor",
          "type": "address"
        },
        {
          "indexed": false,
          "internalType": "string",
          "name": "cexWalletAddress",
          "type": "string"
        },
        {
          "indexed": false,
          "internalType": "string",
          "name": "email",
          "type": "string"
        }
      ],
      "name": "APIKeyRequested",
      "type": "event"
    },
    {
      "anonymous": false,
      "inputs": [
        {
          "indexed": false,
          "internalType": "address",
          "name": "previousAdmin",
          "type": "address"
        },
        {
          "indexed": false,
          "internalType": "address",
          "name": "newAdmin",
          "type": "address"
        }
      ],
      "name": "AdminChanged",
      "type": "event"
    },
    {
      "anonymous": false,
      "inputs": [
        {
          "indexed": true,
          "internalType": "address",
          "name": "beacon",
          "type": "address"
        }
      ],
      "name": "BeaconUpgraded",
      "type": "event"
    },
    {
      "anonymous": false,
      "inputs": [
        {
          "indexed": true,
          "internalType": "address",
          "name": "investor",
          "type": "address"
        },
        {
          "indexed": false,
          "internalType": "string",
          "name": "cexWalletAddress",
          "type": "string"
        },
        {
          "indexed": false,
          "internalType": "string",
          "name": "cexPlatform",
          "type": "string"
        },
        {
          "indexed": false,
          "internalType": "uint256",
          "name": "amount",
          "type": "uint256"
        }
      ],
      "name": "CEXDepositVerificationRequested",
      "type": "event"
    },
    {
      "anonymous": false,
      "inputs": [
        {
          "indexed": true,
          "internalType": "address",
          "name": "investor",
          "type": "address"
        },
        {
          "indexed": false,
          "internalType": "string",
          "name": "newCEXWalletAddress",
          "type": "string"
        },
        {
          "indexed": false,
          "internalType": "string",
          "name": "newCEXPlatform",
          "type": "string"
        }
      ],
      "name": "CEXWalletUpdated",
      "type": "event"
    },
    {
      "anonymous": false,
      "inputs": [
        {
          "indexed": true,
          "internalType": "address",
          "name": "investor",
          "type": "address"
        },
        {
          "indexed": false,
          "internalType": "uint256",
          "name": "amount",
          "type": "uint256"
        }
      ],
      "name": "DepositReceived",
      "type": "event"
    },
    {
      "anonymous": false,
      "inputs": [
        {
          "indexed": true,
          "internalType": "address",
          "name": "investor",
          "type": "address"
        },
        {
          "indexed": false,
          "internalType": "uint256",
          "name": "expectedDeposit",
          "type": "uint256"
        },
        {
          "indexed": false,
          "internalType": "uint256",
          "name": "reportedDeposit",
          "type": "uint256"
        },
        {
          "indexed": false,
          "internalType": "uint256",
          "name": "expectedProfit",
          "type": "uint256"
        },
        {
          "indexed": false,
          "internalType": "uint256",
          "name": "reportedProfit",
          "type": "uint256"
        }
      ],
      "name": "DiscrepancyDetected",
      "type": "event"
    },
    {
      "anonymous": false,
      "inputs": [
        {
          "indexed": false,
          "internalType": "uint8",
          "name": "version",
          "type": "uint8"
        }
      ],
      "name": "Initialized",
      "type": "event"
    },
    {
      "anonymous": false,
      "inputs": [
        {
          "indexed": true,
          "internalType": "address",
          "name": "previousOwner",
          "type": "address"
        },
        {
          "indexed": true,
          "internalType": "address",
          "name": "newOwner",
          "type": "address"
        }
      ],
      "name": "OwnershipTransferred",
      "type": "event"
    },
    {
      "anonymous": false,
      "inputs": [
        {
          "indexed": true,
          "internalType": "address",
          "name": "referrer",
          "type": "address"
        },
        {
          "indexed": false,
          "internalType": "address",
          "name": "newPayoutWallet",
          "type": "address"
        }
      ],
      "name": "PayoutWalletUpdated",
      "type": "event"
    },
    {
      "anonymous": false,
      "inputs": [
        {
          "indexed": true,
          "internalType": "address",
          "name": "investor",
          "type": "address"
        },
        {
          "indexed": false,
          "internalType": "uint256",
          "name": "amountTransferred",
          "type": "uint256"
        }
      ],
      "name": "ProfitTransferConfirmed",
      "type": "event"
    },
    {
      "anonymous": false,
      "inputs": [
        {
          "indexed": true,
          "internalType": "address",
          "name": "investor",
          "type": "address"
        },
        {
          "indexed": false,
          "internalType": "string",
          "name": "cexWalletAddress",
          "type": "string"
        },
        {
          "indexed": false,
          "internalType": "string",
          "name": "cexPlatform",
          "type": "string"
        },
        {
          "indexed": false,
          "internalType": "uint256",
          "name": "profitAmount",
          "type": "uint256"
        }
      ],
      "name": "ProfitTransferVerificationRequested",
      "type": "event"
    },
    {
      "anonymous": false,
      "inputs": [
        {
          "indexed": true,
          "internalType": "address",
          "name": "referrer",
          "type": "address"
        },
        {
          "indexed": false,
          "internalType": "uint256",
          "name": "amount",
          "type": "uint256"
        }
      ],
      "name": "ReferralBonusPaid",
      "type": "event"
    },
    {
      "anonymous": false,
      "inputs": [
        {
          "indexed": true,
          "internalType": "address",
          "name": "user",
          "type": "address"
        },
        {
          "indexed": false,
          "internalType": "string",
          "name": "referralLink",
          "type": "string"
        }
      ],
      "name": "ReferralLinkGenerated",
      "type": "event"
    },
    {
      "anonymous": false,
      "inputs": [
        {
          "indexed": true,
          "internalType": "address",
          "name": "implementation",
          "type": "address"
        }
      ],
      "name": "Upgraded",
      "type": "event"
    },
    {
      "anonymous": false,
      "inputs": [
        {
          "indexed": true,
          "internalType": "address",
          "name": "investor",
          "type": "address"
        },
        {
          "indexed": false,
          "internalType": "uint256",
          "name": "amount",
          "type": "uint256"
        }
      ],
      "name": "Withdrawal",
      "type": "event"
    },
    {
      "inputs": [
        {
          "internalType": "address",
          "name": "",
          "type": "address"
        }
      ],
      "name": "addressToReferralCode",
      "outputs": [
        {
          "internalType": "string",
          "name": "",
          "type": "string"
        }
      ],
      "stateMutability": "view",
      "type": "function"
    },
    {
      "inputs": [
        {
          "internalType": "address",
          "name": "investor",
          "type": "address"
        },
        {
          "internalType": "uint256",
          "name": "amount",
          "type": "uint256"
        },
        {
          "internalType": "string",
          "name": "cexWalletAddress",
          "type": "string"
        },
        {
          "internalType": "string",
          "name": "cexPlatform",
          "type": "string"
        },
        {
          "internalType": "uint256",
          "name": "profitAmount",
          "type": "uint256"
        }
      ],
      "name": "confirmCEXDeposit",
      "outputs": [],
      "stateMutability": "nonpayable",
      "type": "function"
    },
    {
      "inputs": [
        {
          "internalType": "address",
          "name": "investor",
          "type": "address"
        },
        {
          "internalType": "uint256",
          "name": "amountTransferred",
          "type": "uint256"
        }
      ],
      "name": "confirmProfitTransfer",
      "outputs": [],
      "stateMutability": "nonpayable",
      "type": "function"
    },
    {
      "inputs": [
        {
          "internalType": "string",
          "name": "refCode",
          "type": "string"
        },
        {
          "internalType": "string",
          "name": "email",
          "type": "string"
        },
        {
          "internalType": "string",
          "name": "cexWalletAddress",
          "type": "string"
        },
        {
          "internalType": "string",
          "name": "cexPlatform",
          "type": "string"
        }
      ],
      "name": "deposit",
      "outputs": [],
      "stateMutability": "payable",
      "type": "function"
    },
    {
      "inputs": [],
      "name": "generateReferralCode",
      "outputs": [],
      "stateMutability": "nonpayable",
      "type": "function"
    },
    {
      "inputs": [
        {
          "internalType": "address",
          "name": "investor",
          "type": "address"
        }
      ],
      "name": "getCEXWalletDetails",
      "outputs": [
        {
          "internalType": "string",
          "name": "",
          "type": "string"
        },
        {
          "internalType": "string",
          "name": "",
          "type": "string"
        }
      ],
      "stateMutability": "view",
      "type": "function"
    },
    {
      "inputs": [
        {
          "internalType": "address",
          "name": "user",
          "type": "address"
        }
      ],
      "name": "getReferralLink",
      "outputs": [
        {
          "internalType": "string",
          "name": "",
          "type": "string"
        }
      ],
      "stateMutability": "view",
      "type": "function"
    },
    {
      "inputs": [],
      "name": "initialize",
      "outputs": [],
      "stateMutability": "nonpayable",
      "type": "function"
    },
    {
      "inputs": [
        {
          "internalType": "address",
          "name": "",
          "type": "address"
        }
      ],
      "name": "investors",
      "outputs": [
        {
          "internalType": "address",
          "name": "wallet",
          "type": "address"
        },
        {
          "internalType": "uint256",
          "name": "depositAmount",
          "type": "uint256"
        },
        {
          "internalType": "uint256",
          "name": "profit",
          "type": "uint256"
        },
        {
          "internalType": "bool",
          "name": "isVerified",
          "type": "bool"
        },
        {
          "internalType": "address",
          "name": "referrer",
          "type": "address"
        },
        {
          "internalType": "string",
          "name": "referralCode",
          "type": "string"
        },
        {
          "internalType": "string",
          "name": "email",
          "type": "string"
        },
        {
          "internalType": "string",
          "name": "cexWalletAddress",
          "type": "string"
        },
        {
          "internalType": "string",
          "name": "cexPlatform",
          "type": "string"
        },
        {
          "internalType": "address",
          "name": "payoutWallet",
          "type": "address"
        },
        {
          "internalType": "uint256",
          "name": "reservedAmount",
          "type": "uint256"
        },
        {
          "internalType": "uint256",
          "name": "unpaidProfit",
          "type": "uint256"
        }
      ],
      "stateMutability": "view",
      "type": "function"
    },
    {
      "inputs": [
        {
          "internalType": "address",
          "name": "",
          "type": "address"
        }
      ],
      "name": "lastDepositTimestamp",
      "outputs": [
        {
          "internalType": "uint256",
          "name": "",
          "type": "uint256"
        }
      ],
      "stateMutability": "view",
      "type": "function"
    },
    {
      "inputs": [],
      "name": "owner",
      "outputs": [
        {
          "internalType": "address",
          "name": "",
          "type": "address"
        }
      ],
      "stateMutability": "view",
      "type": "function"
    },
    {
      "inputs": [],
      "name": "proxiableUUID",
      "outputs": [
        {
          "internalType": "bytes32",
          "name": "",
          "type": "bytes32"
        }
      ],
      "stateMutability": "view",
      "type": "function"
    },
    {
      "inputs": [
        {
          "internalType": "address",
          "name": "investor",
          "type": "address"
        },
        {
          "internalType": "uint256",
          "name": "reportedDeposit",
          "type": "uint256"
        },
        {
          "internalType": "uint256",
          "name": "reportedProfit",
          "type": "uint256"
        }
      ],
      "name": "reconcileCEXDeposit",
      "outputs": [],
      "stateMutability": "nonpayable",
      "type": "function"
    },
    {
      "inputs": [
        {
          "internalType": "address",
          "name": "",
          "type": "address"
        }
      ],
      "name": "reconciledAmounts",
      "outputs": [
        {
          "internalType": "uint256",
          "name": "",
          "type": "uint256"
        }
      ],
      "stateMutability": "view",
      "type": "function"
    },
    {
      "inputs": [
        {
          "internalType": "string",
          "name": "",
          "type": "string"
        }
      ],
      "name": "referralCodeToAddress",
      "outputs": [
        {
          "internalType": "address",
          "name": "",
          "type": "address"
        }
      ],
      "stateMutability": "view",
      "type": "function"
    },
    {
      "inputs": [],
      "name": "referralLevel1",
      "outputs": [
        {
          "internalType": "uint256",
          "name": "",
          "type": "uint256"
        }
      ],
      "stateMutability": "view",
      "type": "function"
    },
    {
      "inputs": [],
      "name": "referralLevel2",
      "outputs": [
        {
          "internalType": "uint256",
          "name": "",
          "type": "uint256"
        }
      ],
      "stateMutability": "view",
      "type": "function"
    },
    {
      "inputs": [],
      "name": "referralLevel3",
      "outputs": [
        {
          "internalType": "uint256",
          "name": "",
          "type": "uint256"
        }
      ],
      "stateMutability": "view",
      "type": "function"
    },
    {
      "inputs": [
        {
          "internalType": "address",
          "name": "",
          "type": "address"
        }
      ],
      "name": "referralRewards",
      "outputs": [
        {
          "internalType": "uint256",
          "name": "",
          "type": "uint256"
        }
      ],
      "stateMutability": "view",
      "type": "function"
    },
    {
      "inputs": [],
      "name": "renounceOwnership",
      "outputs": [],
      "stateMutability": "nonpayable",
      "type": "function"
    },
    {
      "inputs": [
        {
          "internalType": "address",
          "name": "newOwner",
          "type": "address"
        }
      ],
      "name": "transferOwnership",
      "outputs": [],
      "stateMutability": "nonpayable",
      "type": "function"
    },
    {
      "inputs": [
        {
          "internalType": "address",
          "name": "investor",
          "type": "address"
        },
        {
          "internalType": "string",
          "name": "newCEXWalletAddress",
          "type": "string"
        },
        {
          "internalType": "string",
          "name": "newCEXPlatform",
          "type": "string"
        }
      ],
      "name": "updateCEXWalletAndPlatform",
      "outputs": [],
      "stateMutability": "nonpayable",
      "type": "function"
    },
    {
      "inputs": [
        {
          "internalType": "address",
          "name": "newPayoutWallet",
          "type": "address"
        }
      ],
      "name": "updatePayoutWallet",
      "outputs": [],
      "stateMutability": "nonpayable",
      "type": "function"
    },
    {
      "inputs": [
        {
          "internalType": "uint256",
          "name": "newLockPeriod",
          "type": "uint256"
        }
      ],
      "name": "updateWithdrawalLockPeriod",
      "outputs": [],
      "stateMutability": "nonpayable",
      "type": "function"
    },
    {
      "inputs": [
        {
          "internalType": "address",
          "name": "newImplementation",
          "type": "address"
        }
      ],
      "name": "upgradeTo",
      "outputs": [],
      "stateMutability": "nonpayable",
      "type": "function"
    },
    {
      "inputs": [
        {
          "internalType": "address",
          "name": "newImplementation",
          "type": "address"
        },
        {
          "internalType": "bytes",
          "name": "data",
          "type": "bytes"
        }
      ],
      "name": "upgradeToAndCall",
      "outputs": [],
      "stateMutability": "payable",
      "type": "function"
    },
    {
      "inputs": [
        {
          "internalType": "uint256",
          "name": "amount",
          "type": "uint256"
        }
      ],
      "name": "withdraw",
      "outputs": [],
      "stateMutability": "nonpayable",
      "type": "function"
    },
    {
      "inputs": [],
      "name": "withdrawalLockPeriod",
      "outputs": [
        {
          "internalType": "uint256",
          "name": "",
          "type": "uint256"
        }
      ],
      "stateMutability": "view",
      "type": "function"
    },
    {
      "stateMutability": "payable",
      "type": "receive"
    }
  ],
  "bytecode": "0x60a06040523073ffffffffffffffffffffffffffffffffffffffff1660809073ffffffffffffffffffffffffffffffffffffffff1681525034801561004357600080fd5b50608051615a7061007b60003960008181610abb01528181610b4901528181610e2c01528181610eba0152610f710152615a706000f3fe6080604052600436106101bb5760003560e01c80636f7bc9be116100ec578063b0a2fc1b1161008a578063d6f9237211610064578063d6f92372146105f3578063ea5b8e4914610630578063ee57a79214610659578063f2fde38b14610682576101c2565b8063b0a2fc1b14610562578063b57543c814610579578063b868e7a1146105b6576101c2565b80638129fc1c116100c65780638129fc1c146104b7578063852ace60146104ce57806389eccf47146104f95780638da5cb5b14610537576101c2565b80636f7bc9be1461043c578063715018a614610484578063744cede21461049b576101c2565b806350eccf54116101595780635c3d25ca116101335780635c3d25ca1461037057806360b2b07814610399578063655d8dec146103c25780636a63014b146103ff576101c2565b806350eccf54146102dd57806352d1902d1461030857806353aaa63b14610333576101c2565b80632e1a7d4d116101955780632e1a7d4d146102465780633659cfe61461026f57806346dccac9146102985780634f1ef286146102c1576101c2565b80630bc3f85b146101c75780632313b93c146101f257806326fd89d51461021b576101c2565b366101c257005b600080fd5b3480156101d357600080fd5b506101dc6106ab565b6040516101e99190613a06565b60405180910390f35b3480156101fe57600080fd5b5061021960048036038101906102149190613a61565b6106b2565b005b34801561022757600080fd5b5061023061070a565b60405161023d9190613a06565b60405180910390f35b34801561025257600080fd5b5061026d60048036038101906102689190613a61565b610711565b005b34801561027b57600080fd5b5061029660048036038101906102919190613aec565b610ab9565b005b3480156102a457600080fd5b506102bf60048036038101906102ba9190613b19565b610c41565b005b6102db60048036038101906102d69190613cb2565b610e2a565b005b3480156102e957600080fd5b506102f2610f66565b6040516102ff9190613a06565b60405180910390f35b34801561031457600080fd5b5061031d610f6d565b60405161032a9190613d27565b60405180910390f35b34801561033f57600080fd5b5061035a60048036038101906103559190613aec565b611026565b6040516103679190613a06565b60405180910390f35b34801561037c57600080fd5b5061039760048036038101906103929190613aec565b61103e565b005b3480156103a557600080fd5b506103c060048036038101906103bb9190613da2565b61120e565b005b3480156103ce57600080fd5b506103e960048036038101906103e49190613aec565b61148c565b6040516103f69190613a06565b60405180910390f35b34801561040b57600080fd5b5061042660048036038101906104219190613aec565b6114a5565b6040516104339190613a06565b60405180910390f35b34801561044857600080fd5b50610463600480360381019061045e9190613aec565b6114be565b60405161047b9c9b9a99989796959493929190613f07565b60405180910390f35b34801561049057600080fd5b506104996117ab565b005b6104b560048036038101906104b09190613fdd565b6117bf565b005b3480156104c357600080fd5b506104cc611e07565b005b3480156104da57600080fd5b506104e3611f7a565b6040516104f09190613a06565b60405180910390f35b34801561050557600080fd5b50610520600480360381019061051b9190613aec565b611f80565b60405161052e9291906140c6565b60405180910390f35b34801561054357600080fd5b5061054c6121b7565b60405161055991906140fd565b60405180910390f35b34801561056e57600080fd5b506105776121e1565b005b34801561058557600080fd5b506105a0600480360381019061059b9190613aec565b612398565b6040516105ad9190614118565b60405180910390f35b3480156105c257600080fd5b506105dd60048036038101906105d89190613aec565b6124d2565b6040516105ea9190614118565b60405180910390f35b3480156105ff57600080fd5b5061061a600480360381019061061591906141db565b612572565b60405161062791906140fd565b60405180910390f35b34801561063c57600080fd5b5061065760048036038101906106529190614224565b6125bb565b005b34801561066557600080fd5b50610680600480360381019061067b91906142b9565b612751565b005b34801561068e57600080fd5b506106a960048036038101906106a49190613aec565b6128cf565b005b6101035481565b6106ba612952565b62278d00811115610700576040517f08c379a00000000000000000000000000000000000000000000000000000000081526004016106f79061436b565b60405180910390fd5b8060ff8190555050565b6101045481565b6107196129d0565b60fb60003373ffffffffffffffffffffffffffffffffffffffff1673ffffffffffffffffffffffffffffffffffffffff16815260200190815260200160002060030160009054906101000a900460ff166107a8576040517f08c379a000000000000000000000000000000000000000000000000000000000815260040161079f906143d7565b60405180910390fd5b60ff5461010060003373ffffffffffffffffffffffffffffffffffffffff1673ffffffffffffffffffffffffffffffffffffffff168152602001908152602001600020546107f69190614426565b421015610838576040517f08c379a000000000000000000000000000000000000000000000000000000000815260040161082f906144a6565b60405180910390fd5b600060fb60003373ffffffffffffffffffffffffffffffffffffffff1673ffffffffffffffffffffffffffffffffffffffff168152602001908152602001600020905060008211801561088f575080600901548211155b6108ce576040517f08c379a00000000000000000000000000000000000000000000000000000000081526004016108c590614512565b60405180910390fd5b600081600a015411156109505780600a015481600901541015610926576040517f08c379a000000000000000000000000000000000000000000000000000000000815260040161091d9061457e565b60405180910390fd5b80600a015481600901600082825461093e919061459e565b92505081905550600081600a01819055505b8060090154821115610997576040517f08c379a000000000000000000000000000000000000000000000000000000000815260040161098e90614644565b60405180910390fd5b818160090160008282546109ab919061459e565b9250508190555060003373ffffffffffffffffffffffffffffffffffffffff16836040516109d890614695565b60006040518083038185875af1925050503d8060008114610a15576040519150601f19603f3d011682016040523d82523d6000602084013e610a1a565b606091505b5050905080610a5e576040517f08c379a0000000000000000000000000000000000000000000000000000000008152600401610a55906146f6565b60405180910390fd5b3373ffffffffffffffffffffffffffffffffffffffff167f7fcf532c15f0a6db0bd6d0e038bea71d30d808c7d98cb3bf7268a95bf5081b6584604051610aa49190613a06565b60405180910390a25050610ab6612a1f565b50565b7f000000000000000000000000000000000000000000000000000000000000000073ffffffffffffffffffffffffffffffffffffffff163073ffffffffffffffffffffffffffffffffffffffff1603610b47576040517f08c379a0000000000000000000000000000000000000000000000000000000008152600401610b3e90614788565b60405180910390fd5b7f000000000000000000000000000000000000000000000000000000000000000073ffffffffffffffffffffffffffffffffffffffff16610b86612a29565b73ffffffffffffffffffffffffffffffffffffffff1614610bdc576040517f08c379a0000000000000000000000000000000000000000000000000000000008152600401610bd39061481a565b60405180910390fd5b610be581612a80565b610c3e81600067ffffffffffffffff811115610c0457610c03613b87565b5b6040519080825280601f01601f191660200182016040528015610c365781602001600182028036833780820191505090505b506000612a8b565b50565b610c49612952565b60fb60008473ffffffffffffffffffffffffffffffffffffffff1673ffffffffffffffffffffffffffffffffffffffff16815260200190815260200160002060030160009054906101000a900460ff16610cd8576040517f08c379a0000000000000000000000000000000000000000000000000000000008152600401610ccf906143d7565b60405180910390fd5b600060fb60008573ffffffffffffffffffffffffffffffffffffffff1673ffffffffffffffffffffffffffffffffffffffff168152602001908152602001600020600101549050600060fb60008673ffffffffffffffffffffffffffffffffffffffff1673ffffffffffffffffffffffffffffffffffffffff1681526020019081526020016000206002015490508382148015610d7457508281145b15610dce578284610d859190614426565b61010160008773ffffffffffffffffffffffffffffffffffffffff1673ffffffffffffffffffffffffffffffffffffffff16815260200190815260200160002081905550610e23565b8473ffffffffffffffffffffffffffffffffffffffff167f4f3455463f48f9be4bf3b93348e119ea5bc8e835db32c56d6cc23a07e6fabafb83868487604051610e1a949392919061483a565b60405180910390a25b5050505050565b7f000000000000000000000000000000000000000000000000000000000000000073ffffffffffffffffffffffffffffffffffffffff163073ffffffffffffffffffffffffffffffffffffffff1603610eb8576040517f08c379a0000000000000000000000000000000000000000000000000000000008152600401610eaf90614788565b60405180910390fd5b7f000000000000000000000000000000000000000000000000000000000000000073ffffffffffffffffffffffffffffffffffffffff16610ef7612a29565b73ffffffffffffffffffffffffffffffffffffffff1614610f4d576040517f08c379a0000000000000000000000000000000000000000000000000000000008152600401610f449061481a565b60405180910390fd5b610f5682612a80565b610f6282826001612a8b565b5050565b6101025481565b60007f000000000000000000000000000000000000000000000000000000000000000073ffffffffffffffffffffffffffffffffffffffff163073ffffffffffffffffffffffffffffffffffffffff1614610ffd576040517f08c379a0000000000000000000000000000000000000000000000000000000008152600401610ff4906148f1565b60405180910390fd5b7f360894a13ba1a3210667c828492db98dca3e2076cc3735a920a3ca505d382bbc60001b905090565b60fc6020528060005260406000206000915090505481565b60fb60003373ffffffffffffffffffffffffffffffffffffffff1673ffffffffffffffffffffffffffffffffffffffff16815260200190815260200160002060030160009054906101000a900460ff166110cd576040517f08c379a00000000000000000000000000000000000000000000000000000000081526004016110c4906143d7565b60405180910390fd5b600073ffffffffffffffffffffffffffffffffffffffff168173ffffffffffffffffffffffffffffffffffffffff160361113c576040517f08c379a00000000000000000000000000000000000000000000000000000000081526004016111339061495d565b60405180910390fd5b8060fb60003373ffffffffffffffffffffffffffffffffffffffff1673ffffffffffffffffffffffffffffffffffffffff16815260200190815260200160002060080160006101000a81548173ffffffffffffffffffffffffffffffffffffffff021916908373ffffffffffffffffffffffffffffffffffffffff1602179055503373ffffffffffffffffffffffffffffffffffffffff167fffb7f4dfd1a3815fdaf50941d3302f05ceb8ad88a7ec21b3bfd38e46b55151ea8260405161120391906140fd565b60405180910390a250565b611216612952565b60008611611259576040517f08c379a0000000000000000000000000000000000000000000000000000000008152600401611250906149c9565b60405180910390fd5b60fb60008873ffffffffffffffffffffffffffffffffffffffff1673ffffffffffffffffffffffffffffffffffffffff16815260200190815260200160002060030160009054906101000a900460ff166112e8576040517f08c379a00000000000000000000000000000000000000000000000000000000081526004016112df906143d7565b60405180910390fd5b8560fb60008973ffffffffffffffffffffffffffffffffffffffff1673ffffffffffffffffffffffffffffffffffffffff168152602001908152602001600020600101819055508560fb60008973ffffffffffffffffffffffffffffffffffffffff1673ffffffffffffffffffffffffffffffffffffffff168152602001908152602001600020600901819055506103e861029b8261138791906149e9565b6113919190614a5a565b60fb60008973ffffffffffffffffffffffffffffffffffffffff1673ffffffffffffffffffffffffffffffffffffffff168152602001908152602001600020600a01819055508673ffffffffffffffffffffffffffffffffffffffff167f69bb6e4d3dc0170a426143fd9ee905f37c94c2e44e2b1bb06ca84d32d472d052868686868b604051611425959493929190614ab8565b60405180910390a28673ffffffffffffffffffffffffffffffffffffffff167f4091932ad36717a543659bb2057216adbc6abc09d2d7e197b6b24959521ee288868686868660405161147b959493929190614ab8565b60405180910390a250505050505050565b6101006020528060005260406000206000915090505481565b6101016020528060005260406000206000915090505481565b60fb6020528060005260406000206000915090508060000160009054906101000a900473ffffffffffffffffffffffffffffffffffffffff16908060010154908060020154908060030160009054906101000a900460ff16908060030160019054906101000a900473ffffffffffffffffffffffffffffffffffffffff169080600401805461154c90614b30565b80601f016020809104026020016040519081016040528092919081815260200182805461157890614b30565b80156115c55780601f1061159a576101008083540402835291602001916115c5565b820191906000526020600020905b8154815290600101906020018083116115a857829003601f168201915b5050505050908060050180546115da90614b30565b80601f016020809104026020016040519081016040528092919081815260200182805461160690614b30565b80156116535780601f1061162857610100808354040283529160200191611653565b820191906000526020600020905b81548152906001019060200180831161163657829003601f168201915b50505050509080600601805461166890614b30565b80601f016020809104026020016040519081016040528092919081815260200182805461169490614b30565b80156116e15780601f106116b6576101008083540402835291602001916116e1565b820191906000526020600020905b8154815290600101906020018083116116c457829003601f168201915b5050505050908060070180546116f690614b30565b80601f016020809104026020016040519081016040528092919081815260200182805461172290614b30565b801561176f5780601f106117445761010080835404028352916020019161176f565b820191906000526020600020905b81548152906001019060200180831161175257829003601f168201915b5050505050908060080160009054906101000a900473ffffffffffffffffffffffffffffffffffffffff169080600901549080600a015490508c565b6117b3612952565b6117bd6000612bf9565b565b60fb60003373ffffffffffffffffffffffffffffffffffffffff1673ffffffffffffffffffffffffffffffffffffffff16815260200190815260200160002060030160009054906101000a900460ff161561184f576040517f08c379a000000000000000000000000000000000000000000000000000000000815260040161184690614bad565b60405180910390fd5b600060fd8989604051611863929190614bfd565b908152602001604051809103902060009054906101000a900473ffffffffffffffffffffffffffffffffffffffff169050600073ffffffffffffffffffffffffffffffffffffffff168173ffffffffffffffffffffffffffffffffffffffff161415806118d35750600089899050145b611912576040517f08c379a000000000000000000000000000000000000000000000000000000000815260040161190990614c62565b60405180910390fd5b600061191f336006612cbf565b60405160200161192f9190614cff565b60405160208183030381529060405290503360fd826040516119519190614d21565b908152602001604051809103902060006101000a81548173ffffffffffffffffffffffffffffffffffffffff021916908373ffffffffffffffffffffffffffffffffffffffff1602179055508060fe60003373ffffffffffffffffffffffffffffffffffffffff1673ffffffffffffffffffffffffffffffffffffffff16815260200190815260200160002090816119e99190614ee4565b506040518061018001604052803373ffffffffffffffffffffffffffffffffffffffff16815260200160008152602001600081526020016001151581526020018373ffffffffffffffffffffffffffffffffffffffff16815260200182815260200189898080601f016020809104026020016040519081016040528093929190818152602001838380828437600081840152601f19601f82011690508083019250505050505050815260200187878080601f016020809104026020016040519081016040528093929190818152602001838380828437600081840152601f19601f82011690508083019250505050505050815260200185858080601f016020809104026020016040519081016040528093929190818152602001838380828437600081840152601f19601f8201169050808301925050505050505081526020013373ffffffffffffffffffffffffffffffffffffffff16815260200160008152602001600081525060fb60003373ffffffffffffffffffffffffffffffffffffffff1673ffffffffffffffffffffffffffffffffffffffff16815260200190815260200160002060008201518160000160006101000a81548173ffffffffffffffffffffffffffffffffffffffff021916908373ffffffffffffffffffffffffffffffffffffffff160217905550602082015181600101556040820151816002015560608201518160030160006101000a81548160ff02191690831515021790555060808201518160030160016101000a81548173ffffffffffffffffffffffffffffffffffffffff021916908373ffffffffffffffffffffffffffffffffffffffff16021790555060a0820151816004019081611c679190614ee4565b5060c0820151816005019081611c7d9190614ee4565b5060e0820151816006019081611c939190614ee4565b50610100820151816007019081611caa9190614ee4565b506101208201518160080160006101000a81548173ffffffffffffffffffffffffffffffffffffffff021916908373ffffffffffffffffffffffffffffffffffffffff160217905550610140820151816009015561016082015181600a01559050504261010060003373ffffffffffffffffffffffffffffffffffffffff1673ffffffffffffffffffffffffffffffffffffffff168152602001908152602001600020819055503373ffffffffffffffffffffffffffffffffffffffff167f82ed17600f2c2568f04e3551e69256604354cffea29b8380fc39f389ab266bfe87878b8b604051611d9d9493929190614fb6565b60405180910390a23373ffffffffffffffffffffffffffffffffffffffff167f69bb6e4d3dc0170a426143fd9ee905f37c94c2e44e2b1bb06ca84d32d472d0528787878734604051611df3959493929190614ab8565b60405180910390a250505050505050505050565b60008060019054906101000a900460ff16159050808015611e385750600160008054906101000a900460ff1660ff16105b80611e655750611e4730612ef7565b158015611e645750600160008054906101000a900460ff1660ff16145b5b611ea4576040517f08c379a0000000000000000000000000000000000000000000000000000000008152600401611e9b90615063565b60405180910390fd5b60016000806101000a81548160ff021916908360ff1602179055508015611ee1576001600060016101000a81548160ff0219169083151502179055505b611ee9612f1a565b611ef1612f6b565b611ef9612fc4565b6201518060ff81905550601461010281905550600a610103819055506005610104819055508015611f775760008060016101000a81548160ff0219169083151502179055507f7f26b83ff96e1f2b6a682f133852f6798a09c465da95921460cefb38474024986001604051611f6e91906150cb565b60405180910390a15b50565b60ff5481565b60608060fb60008473ffffffffffffffffffffffffffffffffffffffff1673ffffffffffffffffffffffffffffffffffffffff16815260200190815260200160002060030160009054906101000a900460ff16612012576040517f08c379a0000000000000000000000000000000000000000000000000000000008152600401612009906143d7565b60405180910390fd5b60fb60008473ffffffffffffffffffffffffffffffffffffffff1673ffffffffffffffffffffffffffffffffffffffff16815260200190815260200160002060060160fb60008573ffffffffffffffffffffffffffffffffffffffff1673ffffffffffffffffffffffffffffffffffffffff1681526020019081526020016000206007018180546120a290614b30565b80601f01602080910402602001604051908101604052809291908181526020018280546120ce90614b30565b801561211b5780601f106120f05761010080835404028352916020019161211b565b820191906000526020600020905b8154815290600101906020018083116120fe57829003601f168201915b5050505050915080805461212e90614b30565b80601f016020809104026020016040519081016040528092919081815260200182805461215a90614b30565b80156121a75780601f1061217c576101008083540402835291602001916121a7565b820191906000526020600020905b81548152906001019060200180831161218a57829003601f168201915b5050505050905091509150915091565b600060c960009054906101000a900473ffffffffffffffffffffffffffffffffffffffff16905090565b600060fe60003373ffffffffffffffffffffffffffffffffffffffff1673ffffffffffffffffffffffffffffffffffffffff168152602001908152602001600020805461222d90614b30565b90501461226f576040517f08c379a000000000000000000000000000000000000000000000000000000000815260040161226690615132565b60405180910390fd5b600061227c336006612cbf565b60405160200161228c9190614cff565b60405160208183030381529060405290503360fd826040516122ae9190614d21565b908152602001604051809103902060006101000a81548173ffffffffffffffffffffffffffffffffffffffff021916908373ffffffffffffffffffffffffffffffffffffffff1602179055508060fe60003373ffffffffffffffffffffffffffffffffffffffff1673ffffffffffffffffffffffffffffffffffffffff16815260200190815260200160002090816123469190614ee4565b503373ffffffffffffffffffffffffffffffffffffffff167f47d5f4834a972ed31ff8942b9e4a85ea7eeaa80b0c0589fc945ec2d9cea932da8260405161238d9190614118565b60405180910390a250565b6060600060fe60008473ffffffffffffffffffffffffffffffffffffffff1673ffffffffffffffffffffffffffffffffffffffff16815260200190815260200160002080546123e690614b30565b80601f016020809104026020016040519081016040528092919081815260200182805461241290614b30565b801561245f5780601f106124345761010080835404028352916020019161245f565b820191906000526020600020905b81548152906001019060200180831161244257829003601f168201915b5050505050905060008151116124aa576040517f08c379a00000000000000000000000000000000000000000000000000000000081526004016124a19061519e565b60405180910390fd5b806040516020016124bb919061520a565b604051602081830303815290604052915050919050565b60fe60205280600052604060002060009150905080546124f190614b30565b80601f016020809104026020016040519081016040528092919081815260200182805461251d90614b30565b801561256a5780601f1061253f5761010080835404028352916020019161256a565b820191906000526020600020905b81548152906001019060200180831161254d57829003601f168201915b505050505081565b60fd818051602081018201805184825260208301602085012081835280955050505050506000915054906101000a900473ffffffffffffffffffffffffffffffffffffffff1681565b6125c3612952565b60fb60008673ffffffffffffffffffffffffffffffffffffffff1673ffffffffffffffffffffffffffffffffffffffff16815260200190815260200160002060030160009054906101000a900460ff16612652576040517f08c379a0000000000000000000000000000000000000000000000000000000008152600401612649906143d7565b60405180910390fd5b838360fb60008873ffffffffffffffffffffffffffffffffffffffff1673ffffffffffffffffffffffffffffffffffffffff16815260200190815260200160002060060191826126a3929190615237565b50818160fb60008873ffffffffffffffffffffffffffffffffffffffff1673ffffffffffffffffffffffffffffffffffffffff16815260200190815260200160002060070191826126f5929190615237565b508473ffffffffffffffffffffffffffffffffffffffff167fc5b705f86fadb13181f5465de154e08e12f7e421f614f9f411db5e47b7106690858585856040516127429493929190614fb6565b60405180910390a25050505050565b612759612952565b60fb60008373ffffffffffffffffffffffffffffffffffffffff1673ffffffffffffffffffffffffffffffffffffffff16815260200190815260200160002060030160009054906101000a900460ff166127e8576040517f08c379a00000000000000000000000000000000000000000000000000000000081526004016127df906143d7565b60405180910390fd5b6000811161282b576040517f08c379a000000000000000000000000000000000000000000000000000000000815260040161282290615353565b60405180910390fd5b600060fb60008473ffffffffffffffffffffffffffffffffffffffff1673ffffffffffffffffffffffffffffffffffffffff168152602001908152602001600020600a018190555061287d828261301d565b8173ffffffffffffffffffffffffffffffffffffffff167fab1cc9bfef037c15b83da8d7cd04148eaa569056bd0690c047567270828661ce826040516128c39190613a06565b60405180910390a25050565b6128d7612952565b600073ffffffffffffffffffffffffffffffffffffffff168173ffffffffffffffffffffffffffffffffffffffff1603612946576040517f08c379a000000000000000000000000000000000000000000000000000000000815260040161293d906153e5565b60405180910390fd5b61294f81612bf9565b50565b61295a61366b565b73ffffffffffffffffffffffffffffffffffffffff166129786121b7565b73ffffffffffffffffffffffffffffffffffffffff16146129ce576040517f08c379a00000000000000000000000000000000000000000000000000000000081526004016129c590615451565b60405180910390fd5b565b600260655403612a15576040517f08c379a0000000000000000000000000000000000000000000000000000000008152600401612a0c906154bd565b60405180910390fd5b6002606581905550565b6001606581905550565b6000612a577f360894a13ba1a3210667c828492db98dca3e2076cc3735a920a3ca505d382bbc60001b613673565b60000160009054906101000a900473ffffffffffffffffffffffffffffffffffffffff16905090565b612a88612952565b50565b612ab77f4910fdfa16fed3260ed0e7147f7cc6da11a60208b5b9406d12a635614ffd914360001b61367d565b60000160009054906101000a900460ff1615612adb57612ad683613687565b612bf4565b8273ffffffffffffffffffffffffffffffffffffffff166352d1902d6040518163ffffffff1660e01b8152600401602060405180830381865afa925050508015612b4357506040513d601f19601f82011682018060405250810190612b409190615509565b60015b612b82576040517f08c379a0000000000000000000000000000000000000000000000000000000008152600401612b79906155a8565b60405180910390fd5b7f360894a13ba1a3210667c828492db98dca3e2076cc3735a920a3ca505d382bbc60001b8114612be7576040517f08c379a0000000000000000000000000000000000000000000000000000000008152600401612bde9061563a565b60405180910390fd5b50612bf3838383613740565b5b505050565b600060c960009054906101000a900473ffffffffffffffffffffffffffffffffffffffff1690508160c960006101000a81548173ffffffffffffffffffffffffffffffffffffffff021916908373ffffffffffffffffffffffffffffffffffffffff1602179055508173ffffffffffffffffffffffffffffffffffffffff168173ffffffffffffffffffffffffffffffffffffffff167f8be0079c531659141344cd1fd0a4f28419497f9722a3daafe3b4186f6b6457e060405160405180910390a35050565b6060600083604051602001612cd491906156a2565b604051602081830303815290604052905060006040518060400160405280601081526020017f303132333435363738396162636465660000000000000000000000000000000081525090506000846002612d2e91906149e9565b67ffffffffffffffff811115612d4757612d46613b87565b5b6040519080825280601f01601f191660200182016040528015612d795781602001600182028036833780820191505090505b50905060005b85811015612eea57826004858381518110612d9d57612d9c6156bd565b5b602001015160f81c60f81b7effffffffffffffffffffffffffffffffffffffffffffffffffffffffffffff1916901c60f81c60ff1681518110612de357612de26156bd565b5b602001015160f81c60f81b82826002612dfc91906149e9565b81518110612e0d57612e0c6156bd565b5b60200101907effffffffffffffffffffffffffffffffffffffffffffffffffffffffffffff1916908160001a90535082600f60f81b858381518110612e5557612e546156bd565b5b602001015160f81c60f81b1660f81c60ff1681518110612e7857612e776156bd565b5b602001015160f81c60f81b826001836002612e9391906149e9565b612e9d9190614426565b81518110612eae57612ead6156bd565b5b60200101907effffffffffffffffffffffffffffffffffffffffffffffffffffffffffffff1916908160001a9053508080600101915050612d7f565b5080935050505092915050565b6000808273ffffffffffffffffffffffffffffffffffffffff163b119050919050565b600060019054906101000a900460ff16612f69576040517f08c379a0000000000000000000000000000000000000000000000000000000008152600401612f609061575e565b60405180910390fd5b565b600060019054906101000a900460ff16612fba576040517f08c379a0000000000000000000000000000000000000000000000000000000008152600401612fb19061575e565b60405180910390fd5b612fc261376c565b565b600060019054906101000a900460ff16613013576040517f08c379a000000000000000000000000000000000000000000000000000000000815260040161300a9061575e565b60405180910390fd5b61301b6137c5565b565b600060fb60008473ffffffffffffffffffffffffffffffffffffffff1673ffffffffffffffffffffffffffffffffffffffff16815260200190815260200160002060030160019054906101000a900473ffffffffffffffffffffffffffffffffffffffff169050600060fb60008373ffffffffffffffffffffffffffffffffffffffff1673ffffffffffffffffffffffffffffffffffffffff16815260200190815260200160002060030160019054906101000a900473ffffffffffffffffffffffffffffffffffffffff169050600060fb60008373ffffffffffffffffffffffffffffffffffffffff1673ffffffffffffffffffffffffffffffffffffffff16815260200190815260200160002060030160019054906101000a900473ffffffffffffffffffffffffffffffffffffffff16905060006103e861014d8661316591906149e9565b61316f9190614a5a565b905060006064610102548361318491906149e9565b61318e9190614a5a565b90506000606461010354846131a391906149e9565b6131ad9190614a5a565b90506000606461010454856131c291906149e9565b6131cc9190614a5a565b9050600073ffffffffffffffffffffffffffffffffffffffff168773ffffffffffffffffffffffffffffffffffffffff1614613354578260fc60008973ffffffffffffffffffffffffffffffffffffffff1673ffffffffffffffffffffffffffffffffffffffff16815260200190815260200160002060008282546132519190614426565b9250508190555060008773ffffffffffffffffffffffffffffffffffffffff168460405161327e90614695565b60006040518083038185875af1925050503d80600081146132bb576040519150601f19603f3d011682016040523d82523d6000602084013e6132c0565b606091505b5050905080613304576040517f08c379a00000000000000000000000000000000000000000000000000000000081526004016132fb906157ca565b60405180910390fd5b8773ffffffffffffffffffffffffffffffffffffffff167f050bae3eeefac62a4ee36c766f4f426f09edf96ae8fb3034ebbf961e4acc78e28560405161334a9190613a06565b60405180910390a2505b600073ffffffffffffffffffffffffffffffffffffffff168673ffffffffffffffffffffffffffffffffffffffff16146134da578160fc60008873ffffffffffffffffffffffffffffffffffffffff1673ffffffffffffffffffffffffffffffffffffffff16815260200190815260200160002060008282546133d79190614426565b9250508190555060008673ffffffffffffffffffffffffffffffffffffffff168360405161340490614695565b60006040518083038185875af1925050503d8060008114613441576040519150601f19603f3d011682016040523d82523d6000602084013e613446565b606091505b505090508061348a576040517f08c379a000000000000000000000000000000000000000000000000000000000815260040161348190615836565b60405180910390fd5b8673ffffffffffffffffffffffffffffffffffffffff167f050bae3eeefac62a4ee36c766f4f426f09edf96ae8fb3034ebbf961e4acc78e2846040516134d09190613a06565b60405180910390a2505b600073ffffffffffffffffffffffffffffffffffffffff168573ffffffffffffffffffffffffffffffffffffffff1614613660578060fc60008773ffffffffffffffffffffffffffffffffffffffff1673ffffffffffffffffffffffffffffffffffffffff168152602001908152602001600020600082825461355d9190614426565b9250508190555060008573ffffffffffffffffffffffffffffffffffffffff168260405161358a90614695565b60006040518083038185875af1925050503d80600081146135c7576040519150601f19603f3d011682016040523d82523d6000602084013e6135cc565b606091505b5050905080613610576040517f08c379a0000000000000000000000000000000000000000000000000000000008152600401613607906158a2565b60405180910390fd5b8573ffffffffffffffffffffffffffffffffffffffff167f050bae3eeefac62a4ee36c766f4f426f09edf96ae8fb3034ebbf961e4acc78e2836040516136569190613a06565b60405180910390a2505b505050505050505050565b600033905090565b6000819050919050565b6000819050919050565b61369081612ef7565b6136cf576040517f08c379a00000000000000000000000000000000000000000000000000000000081526004016136c690615934565b60405180910390fd5b806136fc7f360894a13ba1a3210667c828492db98dca3e2076cc3735a920a3ca505d382bbc60001b613673565b60000160006101000a81548173ffffffffffffffffffffffffffffffffffffffff021916908373ffffffffffffffffffffffffffffffffffffffff16021790555050565b61374983613826565b6000825111806137565750805b15613767576137658383613875565b505b505050565b600060019054906101000a900460ff166137bb576040517f08c379a00000000000000000000000000000000000000000000000000000000081526004016137b29061575e565b60405180910390fd5b6001606581905550565b600060019054906101000a900460ff16613814576040517f08c379a000000000000000000000000000000000000000000000000000000000815260040161380b9061575e565b60405180910390fd5b61382461381f61366b565b612bf9565b565b61382f81613687565b8073ffffffffffffffffffffffffffffffffffffffff167fbc7cd75a20ee27fd9adebab32041f755214dbc6bffa90cc0225b39da2e5c2d3b60405160405180910390a250565b606061389a8383604051806060016040528060278152602001615a14602791396138a2565b905092915050565b60606000808573ffffffffffffffffffffffffffffffffffffffff16856040516138cc9190615990565b600060405180830381855af49150503d8060008114613907576040519150601f19603f3d011682016040523d82523d6000602084013e61390c565b606091505b509150915061391d86838387613928565b925050509392505050565b6060831561398a5760008351036139825761394285612ef7565b613981576040517f08c379a0000000000000000000000000000000000000000000000000000000008152600401613978906159f3565b60405180910390fd5b5b829050613995565b613994838361399d565b5b949350505050565b6000825111156139b05781518083602001fd5b806040517f08c379a00000000000000000000000000000000000000000000000000000000081526004016139e49190614118565b60405180910390fd5b6000819050919050565b613a00816139ed565b82525050565b6000602082019050613a1b60008301846139f7565b92915050565b6000604051905090565b600080fd5b600080fd5b613a3e816139ed565b8114613a4957600080fd5b50565b600081359050613a5b81613a35565b92915050565b600060208284031215613a7757613a76613a2b565b5b6000613a8584828501613a4c565b91505092915050565b600073ffffffffffffffffffffffffffffffffffffffff82169050919050565b6000613ab982613a8e565b9050919050565b613ac981613aae565b8114613ad457600080fd5b50565b600081359050613ae681613ac0565b92915050565b600060208284031215613b0257613b01613a2b565b5b6000613b1084828501613ad7565b91505092915050565b600080600060608486031215613b3257613b31613a2b565b5b6000613b4086828701613ad7565b9350506020613b5186828701613a4c565b9250506040613b6286828701613a4c565b9150509250925092565b600080fd5b600080fd5b6000601f19601f8301169050919050565b7f4e487b7100000000000000000000000000000000000000000000000000000000600052604160045260246000fd5b613bbf82613b76565b810181811067ffffffffffffffff82111715613bde57613bdd613b87565b5b80604052505050565b6000613bf1613a21565b9050613bfd8282613bb6565b919050565b600067ffffffffffffffff821115613c1d57613c1c613b87565b5b613c2682613b76565b9050602081019050919050565b82818337600083830152505050565b6000613c55613c5084613c02565b613be7565b905082815260208101848484011115613c7157613c70613b71565b5b613c7c848285613c33565b509392505050565b600082601f830112613c9957613c98613b6c565b5b8135613ca9848260208601613c42565b91505092915050565b60008060408385031215613cc957613cc8613a2b565b5b6000613cd785828601613ad7565b925050602083013567ffffffffffffffff811115613cf857613cf7613a30565b5b613d0485828601613c84565b9150509250929050565b6000819050919050565b613d2181613d0e565b82525050565b6000602082019050613d3c6000830184613d18565b92915050565b600080fd5b600080fd5b60008083601f840112613d6257613d61613b6c565b5b8235905067ffffffffffffffff811115613d7f57613d7e613d42565b5b602083019150836001820283011115613d9b57613d9a613d47565b5b9250929050565b600080600080600080600060a0888a031215613dc157613dc0613a2b565b5b6000613dcf8a828b01613ad7565b9750506020613de08a828b01613a4c565b965050604088013567ffffffffffffffff811115613e0157613e00613a30565b5b613e0d8a828b01613d4c565b9550955050606088013567ffffffffffffffff811115613e3057613e2f613a30565b5b613e3c8a828b01613d4c565b93509350506080613e4f8a828b01613a4c565b91505092959891949750929550565b613e6781613aae565b82525050565b60008115159050919050565b613e8281613e6d565b82525050565b600081519050919050565b600082825260208201905092915050565b60005b83811015613ec2578082015181840152602081019050613ea7565b60008484015250505050565b6000613ed982613e88565b613ee38185613e93565b9350613ef3818560208601613ea4565b613efc81613b76565b840191505092915050565b600061018082019050613f1d600083018f613e5e565b613f2a602083018e6139f7565b613f37604083018d6139f7565b613f44606083018c613e79565b613f51608083018b613e5e565b81810360a0830152613f63818a613ece565b905081810360c0830152613f778189613ece565b905081810360e0830152613f8b8188613ece565b9050818103610100830152613fa08187613ece565b9050613fb0610120830186613e5e565b613fbe6101408301856139f7565b613fcc6101608301846139f7565b9d9c50505050505050505050505050565b6000806000806000806000806080898b031215613ffd57613ffc613a2b565b5b600089013567ffffffffffffffff81111561401b5761401a613a30565b5b6140278b828c01613d4c565b9850985050602089013567ffffffffffffffff81111561404a57614049613a30565b5b6140568b828c01613d4c565b9650965050604089013567ffffffffffffffff81111561407957614078613a30565b5b6140858b828c01613d4c565b9450945050606089013567ffffffffffffffff8111156140a8576140a7613a30565b5b6140b48b828c01613d4c565b92509250509295985092959890939650565b600060408201905081810360008301526140e08185613ece565b905081810360208301526140f48184613ece565b90509392505050565b60006020820190506141126000830184613e5e565b92915050565b600060208201905081810360008301526141328184613ece565b905092915050565b600067ffffffffffffffff82111561415557614154613b87565b5b61415e82613b76565b9050602081019050919050565b600061417e6141798461413a565b613be7565b90508281526020810184848401111561419a57614199613b71565b5b6141a5848285613c33565b509392505050565b600082601f8301126141c2576141c1613b6c565b5b81356141d284826020860161416b565b91505092915050565b6000602082840312156141f1576141f0613a2b565b5b600082013567ffffffffffffffff81111561420f5761420e613a30565b5b61421b848285016141ad565b91505092915050565b6000806000806000606086880312156142405761423f613a2b565b5b600061424e88828901613ad7565b955050602086013567ffffffffffffffff81111561426f5761426e613a30565b5b61427b88828901613d4c565b9450945050604086013567ffffffffffffffff81111561429e5761429d613a30565b5b6142aa88828901613d4c565b92509250509295509295909350565b600080604083850312156142d0576142cf613a2b565b5b60006142de85828601613ad7565b92505060206142ef85828601613a4c565b9150509250929050565b7f4c6f636b20706572696f642063616e6e6f74206578636565642033302064617960008201527f7300000000000000000000000000000000000000000000000000000000000000602082015250565b6000614355602183613e93565b9150614360826142f9565b604082019050919050565b6000602082019050818103600083015261438481614348565b9050919050565b7f496e766573746f72206e6f742076657269666965640000000000000000000000600082015250565b60006143c1601583613e93565b91506143cc8261438b565b602082019050919050565b600060208201905081810360008301526143f0816143b4565b9050919050565b7f4e487b7100000000000000000000000000000000000000000000000000000000600052601160045260246000fd5b6000614431826139ed565b915061443c836139ed565b9250828201905080821115614454576144536143f7565b5b92915050565b7f5769746864726177616c206c6f636b656420666f7220323420686f7572732100600082015250565b6000614490601f83613e93565b915061449b8261445a565b602082019050919050565b600060208201905081810360008301526144bf81614483565b9050919050565b7f496e76616c696420616d6f756e74000000000000000000000000000000000000600082015250565b60006144fc600e83613e93565b9150614507826144c6565b602082019050919050565b6000602082019050818103600083015261452b816144ef565b9050919050565b7f556e706169642070726f66697420657863656564732072657365727665000000600082015250565b6000614568601d83613e93565b915061457382614532565b602082019050919050565b600060208201905081810360008301526145978161455b565b9050919050565b60006145a9826139ed565b91506145b4836139ed565b92508282039050818111156145cc576145cb6143f7565b5b92915050565b7f416d6f756e74206578636565647320726573657276652061667465722064656460008201527f756374696f6e7300000000000000000000000000000000000000000000000000602082015250565b600061462e602783613e93565b9150614639826145d2565b604082019050919050565b6000602082019050818103600083015261465d81614621565b9050919050565b600081905092915050565b50565b600061467f600083614664565b915061468a8261466f565b600082019050919050565b60006146a082614672565b9150819050919050565b7f5769746864726177616c206661696c6564000000000000000000000000000000600082015250565b60006146e0601183613e93565b91506146eb826146aa565b602082019050919050565b6000602082019050818103600083015261470f816146d3565b9050919050565b7f46756e6374696f6e206d7573742062652063616c6c6564207468726f7567682060008201527f64656c656761746563616c6c0000000000000000000000000000000000000000602082015250565b6000614772602c83613e93565b915061477d82614716565b604082019050919050565b600060208201905081810360008301526147a181614765565b9050919050565b7f46756e6374696f6e206d7573742062652063616c6c6564207468726f7567682060008201527f6163746976652070726f78790000000000000000000000000000000000000000602082015250565b6000614804602c83613e93565b915061480f826147a8565b604082019050919050565b60006020820190508181036000830152614833816147f7565b9050919050565b600060808201905061484f60008301876139f7565b61485c60208301866139f7565b61486960408301856139f7565b61487660608301846139f7565b95945050505050565b7f555550535570677261646561626c653a206d757374206e6f742062652063616c60008201527f6c6564207468726f7567682064656c656761746563616c6c0000000000000000602082015250565b60006148db603883613e93565b91506148e68261487f565b604082019050919050565b6000602082019050818103600083015261490a816148ce565b9050919050565b7f496e76616c69642077616c6c6574206164647265737300000000000000000000600082015250565b6000614947601683613e93565b915061495282614911565b602082019050919050565b600060208201905081810360008301526149768161493a565b9050919050565b7f4465706f736974206d7573742062652067726561746572207468616e20300000600082015250565b60006149b3601e83613e93565b91506149be8261497d565b602082019050919050565b600060208201905081810360008301526149e2816149a6565b9050919050565b60006149f4826139ed565b91506149ff836139ed565b9250828202614a0d816139ed565b91508282048414831517614a2457614a236143f7565b5b5092915050565b7f4e487b7100000000000000000000000000000000000000000000000000000000600052601260045260246000fd5b6000614a65826139ed565b9150614a70836139ed565b925082614a8057614a7f614a2b565b5b828204905092915050565b6000614a978385613e93565b9350614aa4838584613c33565b614aad83613b76565b840190509392505050565b60006060820190508181036000830152614ad3818789614a8b565b90508181036020830152614ae8818587614a8b565b9050614af760408301846139f7565b9695505050505050565b7f4e487b7100000000000000000000000000000000000000000000000000000000600052602260045260246000fd5b60006002820490506001821680614b4857607f821691505b602082108103614b5b57614b5a614b01565b5b50919050565b7f416c726561647920696e76657374656400000000000000000000000000000000600082015250565b6000614b97601083613e93565b9150614ba282614b61565b602082019050919050565b60006020820190508181036000830152614bc681614b8a565b9050919050565b600081905092915050565b6000614be48385614bcd565b9350614bf1838584613c33565b82840190509392505050565b6000614c0a828486614bd8565b91508190509392505050565b7f496e76616c696420726566657272616c20636f64652100000000000000000000600082015250565b6000614c4c601683613e93565b9150614c5782614c16565b602082019050919050565b60006020820190508181036000830152614c7b81614c3f565b9050919050565b7f4c442d0000000000000000000000000000000000000000000000000000000000600082015250565b6000614cb8600383614bcd565b9150614cc382614c82565b600382019050919050565b6000614cd982613e88565b614ce38185614bcd565b9350614cf3818560208601613ea4565b80840191505092915050565b6000614d0a82614cab565b9150614d168284614cce565b915081905092915050565b6000614d2d8284614cce565b915081905092915050565b60008190508160005260206000209050919050565b60006020601f8301049050919050565b600082821b905092915050565b600060088302614d9a7fffffffffffffffffffffffffffffffffffffffffffffffffffffffffffffffff82614d5d565b614da48683614d5d565b95508019841693508086168417925050509392505050565b6000819050919050565b6000614de1614ddc614dd7846139ed565b614dbc565b6139ed565b9050919050565b6000819050919050565b614dfb83614dc6565b614e0f614e0782614de8565b848454614d6a565b825550505050565b600090565b614e24614e17565b614e2f818484614df2565b505050565b5b81811015614e5357614e48600082614e1c565b600181019050614e35565b5050565b601f821115614e9857614e6981614d38565b614e7284614d4d565b81016020851015614e81578190505b614e95614e8d85614d4d565b830182614e34565b50505b505050565b600082821c905092915050565b6000614ebb60001984600802614e9d565b1980831691505092915050565b6000614ed48383614eaa565b9150826002028217905092915050565b614eed82613e88565b67ffffffffffffffff811115614f0657614f05613b87565b5b614f108254614b30565b614f1b828285614e57565b600060209050601f831160018114614f4e5760008415614f3c578287015190505b614f468582614ec8565b865550614fae565b601f198416614f5c86614d38565b60005b82811015614f8457848901518255600182019150602085019450602081019050614f5f565b86831015614fa15784890151614f9d601f891682614eaa565b8355505b6001600288020188555050505b505050505050565b60006040820190508181036000830152614fd1818688614a8b565b90508181036020830152614fe6818486614a8b565b905095945050505050565b7f496e697469616c697a61626c653a20636f6e747261637420697320616c72656160008201527f647920696e697469616c697a6564000000000000000000000000000000000000602082015250565b600061504d602e83613e93565b915061505882614ff1565b604082019050919050565b6000602082019050818103600083015261507c81615040565b9050919050565b6000819050919050565b600060ff82169050919050565b60006150b56150b06150ab84615083565b614dbc565b61508d565b9050919050565b6150c58161509a565b82525050565b60006020820190506150e060008301846150bc565b92915050565b7f526566657272616c20636f646520616c72656164792065786973747300000000600082015250565b600061511c601c83613e93565b9150615127826150e6565b602082019050919050565b6000602082019050818103600083015261514b8161510f565b9050919050565b7f4e6f20726566657272616c20636f646520666f756e6421000000000000000000600082015250565b6000615188601783613e93565b915061519382615152565b602082019050919050565b600060208201905081810360008301526151b78161517b565b9050919050565b7f68747470733a2f2f6c756d656e2d6465692e636f6d3f7265663d000000000000600082015250565b60006151f4601a83614bcd565b91506151ff826151be565b601a82019050919050565b6000615215826151e7565b91506152218284614cce565b915081905092915050565b600082905092915050565b615241838361522c565b67ffffffffffffffff81111561525a57615259613b87565b5b6152648254614b30565b61526f828285614e57565b6000601f83116001811461529e576000841561528c578287013590505b6152968582614ec8565b8655506152fe565b601f1984166152ac86614d38565b60005b828110156152d4578489013582556001820191506020850194506020810190506152af565b868310156152f157848901356152ed601f891682614eaa565b8355505b6001600288020188555050505b50505050505050565b7f496e76616c6964207472616e7366657220616d6f756e74000000000000000000600082015250565b600061533d601783613e93565b915061534882615307565b602082019050919050565b6000602082019050818103600083015261536c81615330565b9050919050565b7f4f776e61626c653a206e6577206f776e657220697320746865207a65726f206160008201527f6464726573730000000000000000000000000000000000000000000000000000602082015250565b60006153cf602683613e93565b91506153da82615373565b604082019050919050565b600060208201905081810360008301526153fe816153c2565b9050919050565b7f4f776e61626c653a2063616c6c6572206973206e6f7420746865206f776e6572600082015250565b600061543b602083613e93565b915061544682615405565b602082019050919050565b6000602082019050818103600083015261546a8161542e565b9050919050565b7f5265656e7472616e637947756172643a207265656e7472616e742063616c6c00600082015250565b60006154a7601f83613e93565b91506154b282615471565b602082019050919050565b600060208201905081810360008301526154d68161549a565b9050919050565b6154e681613d0e565b81146154f157600080fd5b50565b600081519050615503816154dd565b92915050565b60006020828403121561551f5761551e613a2b565b5b600061552d848285016154f4565b91505092915050565b7f45524331393637557067726164653a206e657720696d706c656d656e7461746960008201527f6f6e206973206e6f742055555053000000000000000000000000000000000000602082015250565b6000615592602e83613e93565b915061559d82615536565b604082019050919050565b600060208201905081810360008301526155c181615585565b9050919050565b7f45524331393637557067726164653a20756e737570706f727465642070726f7860008201527f6961626c65555549440000000000000000000000000000000000000000000000602082015250565b6000615624602983613e93565b915061562f826155c8565b604082019050919050565b6000602082019050818103600083015261565381615617565b9050919050565b60008160601b9050919050565b60006156728261565a565b9050919050565b600061568482615667565b9050919050565b61569c61569782613aae565b615679565b82525050565b60006156ae828461568b565b60148201915081905092915050565b7f4e487b7100000000000000000000000000000000000000000000000000000000600052603260045260246000fd5b7f496e697469616c697a61626c653a20636f6e7472616374206973206e6f74206960008201527f6e697469616c697a696e67000000000000000000000000000000000000000000602082015250565b6000615748602b83613e93565b9150615753826156ec565b604082019050919050565b600060208201905081810360008301526157778161573b565b9050919050565b7f526566657272616c204c6576656c2031207472616e73666572206661696c6564600082015250565b60006157b4602083613e93565b91506157bf8261577e565b602082019050919050565b600060208201905081810360008301526157e3816157a7565b9050919050565b7f526566657272616c204c6576656c2032207472616e73666572206661696c6564600082015250565b6000615820602083613e93565b915061582b826157ea565b602082019050919050565b6000602082019050818103600083015261584f81615813565b9050919050565b7f526566657272616c204c6576656c2033207472616e73666572206661696c6564600082015250565b600061588c602083613e93565b915061589782615856565b602082019050919050565b600060208201905081810360008301526158bb8161587f565b9050919050565b7f455243313936373a206e657720696d706c656d656e746174696f6e206973206e60008201527f6f74206120636f6e747261637400000000000000000000000000000000000000602082015250565b600061591e602d83613e93565b9150615929826158c2565b604082019050919050565b6000602082019050818103600083015261594d81615911565b9050919050565b600081519050919050565b600061596a82615954565b6159748185614664565b9350615984818560208601613ea4565b80840191505092915050565b600061599c828461595f565b915081905092915050565b7f416464726573733a2063616c6c20746f206e6f6e2d636f6e7472616374000000600082015250565b60006159dd601d83613e93565b91506159e8826159a7565b602082019050919050565b60006020820190508181036000830152615a0c816159d0565b905091905056fe416464726573733a206c6f772d6c6576656c2064656c65676174652063616c6c206661696c6564a2646970667358221220018400f7803e0e6332f7fc6d6b0d693872cf5e1d157ff779600914867e4f55b964736f6c634300081c0033",
  "linkReferences": {},
  "deployedLinkReferences": {}
}