{
  "_format": "hh-sol-artifact-1",
  "contractName": "LumenDeiFund",
  "sourceName": "contracts/LumenDeiFund.sol",
  "abi": [
    {
      "inputs": [],
      "stateMutability": "nonpayable",
      "type": "constructor"
    },
    {
      "anonymous": false,
      "inputs": [
        {
          "indexed": true,
          "internalType": "address",
          "name": "investor",
          "type": "address"
        }
      ],
      "name": "APIKeyRequested",
      "type": "event"
    },
    {
      "anonymous": false,
      "inputs": [
        {
          "indexed": true,
          "internalType": "address",
          "name": "investor",
          "type": "address"
        },
        {
          "indexed": false,
          "internalType": "uint256",
          "name": "amount",
          "type": "uint256"
        }
      ],
      "name": "DepositReceived",
      "type": "event"
    },
    {
      "anonymous": false,
      "inputs": [
        {
          "indexed": true,
          "internalType": "address",
          "name": "investor",
          "type": "address"
        },
        {
          "indexed": false,
          "internalType": "uint256",
          "name": "amount",
          "type": "uint256"
        }
      ],
      "name": "ProfitDistributed",
      "type": "event"
    },
    {
      "anonymous": false,
      "inputs": [
        {
          "indexed": true,
          "internalType": "address",
          "name": "referrer",
          "type": "address"
        },
        {
          "indexed": false,
          "internalType": "uint256",
          "name": "amount",
          "type": "uint256"
        }
      ],
      "name": "ReferralBonusPaid",
      "type": "event"
    },
    {
      "anonymous": false,
      "inputs": [
        {
          "indexed": true,
          "internalType": "address",
          "name": "investor",
          "type": "address"
        },
        {
          "indexed": false,
          "internalType": "uint256",
          "name": "amount",
          "type": "uint256"
        }
      ],
      "name": "Withdrawal",
      "type": "event"
    },
    {
      "inputs": [
        {
          "internalType": "address",
          "name": "",
          "type": "address"
        }
      ],
      "name": "addressToReferralCode",
      "outputs": [
        {
          "internalType": "string",
          "name": "",
          "type": "string"
        }
      ],
      "stateMutability": "view",
      "type": "function"
    },
    {
      "inputs": [],
      "name": "aiWealthProWallet",
      "outputs": [
        {
          "internalType": "address",
          "name": "",
          "type": "address"
        }
      ],
      "stateMutability": "view",
      "type": "function"
    },
    {
      "inputs": [
        {
          "internalType": "address",
          "name": "investor",
          "type": "address"
        },
        {
          "internalType": "uint256",
          "name": "amount",
          "type": "uint256"
        },
        {
          "internalType": "string",
          "name": "refCode",
          "type": "string"
        }
      ],
      "name": "confirmCEXDeposit",
      "outputs": [],
      "stateMutability": "nonpayable",
      "type": "function"
    },
    {
      "inputs": [
        {
          "internalType": "address",
          "name": "investor",
          "type": "address"
        }
      ],
      "name": "deductPerformanceFee",
      "outputs": [],
      "stateMutability": "nonpayable",
      "type": "function"
    },
    {
      "inputs": [
        {
          "internalType": "string",
          "name": "refCode",
          "type": "string"
        }
      ],
      "name": "deposit",
      "outputs": [],
      "stateMutability": "payable",
      "type": "function"
    },
    {
      "inputs": [
        {
          "internalType": "address",
          "name": "investor",
          "type": "address"
        }
      ],
      "name": "distributeMonthlyProfits",
      "outputs": [],
      "stateMutability": "nonpayable",
      "type": "function"
    },
    {
      "inputs": [],
      "name": "founderWallet",
      "outputs": [
        {
          "internalType": "address",
          "name": "",
          "type": "address"
        }
      ],
      "stateMutability": "view",
      "type": "function"
    },
    {
      "inputs": [
        {
          "internalType": "address",
          "name": "",
          "type": "address"
        }
      ],
      "name": "investors",
      "outputs": [
        {
          "internalType": "address",
          "name": "wallet",
          "type": "address"
        },
        {
          "internalType": "uint256",
          "name": "depositAmount",
          "type": "uint256"
        },
        {
          "internalType": "uint256",
          "name": "profit",
          "type": "uint256"
        },
        {
          "internalType": "bool",
          "name": "isVerified",
          "type": "bool"
        },
        {
          "internalType": "address",
          "name": "referrer",
          "type": "address"
        }
      ],
      "stateMutability": "view",
      "type": "function"
    },
    {
      "inputs": [],
      "name": "owner",
      "outputs": [
        {
          "internalType": "address",
          "name": "",
          "type": "address"
        }
      ],
      "stateMutability": "view",
      "type": "function"
    },
    {
      "inputs": [],
      "name": "payAIWealthPro",
      "outputs": [],
      "stateMutability": "nonpayable",
      "type": "function"
    },
    {
      "inputs": [],
      "name": "payFounder",
      "outputs": [],
      "stateMutability": "nonpayable",
      "type": "function"
    },
    {
      "inputs": [],
      "name": "performanceFee",
      "outputs": [
        {
          "internalType": "uint256",
          "name": "",
          "type": "uint256"
        }
      ],
      "stateMutability": "view",
      "type": "function"
    },
    {
      "inputs": [
        {
          "internalType": "string",
          "name": "",
          "type": "string"
        }
      ],
      "name": "referralCodeToAddress",
      "outputs": [
        {
          "internalType": "address",
          "name": "",
          "type": "address"
        }
      ],
      "stateMutability": "view",
      "type": "function"
    },
    {
      "inputs": [],
      "name": "referralLevel1",
      "outputs": [
        {
          "internalType": "uint256",
          "name": "",
          "type": "uint256"
        }
      ],
      "stateMutability": "view",
      "type": "function"
    },
    {
      "inputs": [],
      "name": "referralLevel2",
      "outputs": [
        {
          "internalType": "uint256",
          "name": "",
          "type": "uint256"
        }
      ],
      "stateMutability": "view",
      "type": "function"
    },
    {
      "inputs": [],
      "name": "referralLevel3",
      "outputs": [
        {
          "internalType": "uint256",
          "name": "",
          "type": "uint256"
        }
      ],
      "stateMutability": "view",
      "type": "function"
    },
    {
      "inputs": [
        {
          "internalType": "address",
          "name": "",
          "type": "address"
        }
      ],
      "name": "referralRewards",
      "outputs": [
        {
          "internalType": "uint256",
          "name": "",
          "type": "uint256"
        }
      ],
      "stateMutability": "view",
      "type": "function"
    },
    {
      "inputs": [
        {
          "internalType": "string",
          "name": "code",
          "type": "string"
        }
      ],
      "name": "registerReferralCode",
      "outputs": [],
      "stateMutability": "nonpayable",
      "type": "function"
    },
    {
      "inputs": [
        {
          "internalType": "address",
          "name": "",
          "type": "address"
        }
      ],
      "name": "tradingProfits",
      "outputs": [
        {
          "internalType": "uint256",
          "name": "",
          "type": "uint256"
        }
      ],
      "stateMutability": "view",
      "type": "function"
    },
    {
      "inputs": [
        {
          "internalType": "address",
          "name": "investor",
          "type": "address"
        },
        {
          "internalType": "uint256",
          "name": "profit",
          "type": "uint256"
        }
      ],
      "name": "updateProfit",
      "outputs": [],
      "stateMutability": "nonpayable",
      "type": "function"
    },
    {
      "inputs": [
        {
          "internalType": "address",
          "name": "_aiWealthPro",
          "type": "address"
        },
        {
          "internalType": "address",
          "name": "_founder",
          "type": "address"
        }
      ],
      "name": "updateWallets",
      "outputs": [],
      "stateMutability": "nonpayable",
      "type": "function"
    },
    {
      "inputs": [
        {
          "internalType": "uint256",
          "name": "amount",
          "type": "uint256"
        }
      ],
      "name": "withdraw",
      "outputs": [],
      "stateMutability": "nonpayable",
      "type": "function"
    }
  ],
  "bytecode": "0x60806040526000600660006101000a81548173ffffffffffffffffffffffffffffffffffffffff021916908373ffffffffffffffffffffffffffffffffffffffff1602179055506000600760006101000a81548173ffffffffffffffffffffffffffffffffffffffff021916908373ffffffffffffffffffffffffffffffffffffffff160217905550603c6008556014600955600a80556005600b5534801560a657600080fd5b5033600560006101000a81548173ffffffffffffffffffffffffffffffffffffffff021916908373ffffffffffffffffffffffffffffffffffffffff1602179055506130d9806100f76000396000f3fe6080604052600436106101355760003560e01c80638da5cb5b116100ab578063b868e7a11161006f578063b868e7a1146103f9578063c0ad5f1d14610436578063d6f923721461045f578063e8ba854f1461049c578063fe2b85f1146104c5578063ff9b0b45146104dc57610135565b80638da5cb5b146103215780639fe42e6e1461034c578063a23d3c3514610375578063a26e1186146103a0578063a3e391d1146103bc57610135565b806350eccf54116100fd57806350eccf541461020d57806353aaa63b1461023857806359fb7752146102755780636f7bc9be1461029e57806372a911cc146102df57806387788782146102f657610135565b80630bc3f85b1461013a5780631eabadf31461016557806326fd89d51461018e5780632e1a7d4d146101b957806344f75e42146101e2575b600080fd5b34801561014657600080fd5b5061014f610505565b60405161015c919061221a565b60405180910390f35b34801561017157600080fd5b5061018c600480360381019061018791906122a7565b61050b565b005b34801561019a57600080fd5b506101a361078b565b6040516101b0919061221a565b60405180910390f35b3480156101c557600080fd5b506101e060048036038101906101db9190612300565b610791565b005b3480156101ee57600080fd5b506101f7610993565b604051610204919061233c565b60405180910390f35b34801561021957600080fd5b506102226109b9565b60405161022f919061221a565b60405180910390f35b34801561024457600080fd5b5061025f600480360381019061025a91906122a7565b6109bf565b60405161026c919061221a565b60405180910390f35b34801561028157600080fd5b5061029c600480360381019061029791906123bc565b6109d7565b005b3480156102aa57600080fd5b506102c560048036038101906102c091906122a7565b610bc6565b6040516102d6959493929190612424565b60405180910390f35b3480156102eb57600080fd5b506102f4610c49565b005b34801561030257600080fd5b5061030b610dd2565b604051610318919061221a565b60405180910390f35b34801561032d57600080fd5b50610336610dd8565b604051610343919061233c565b60405180910390f35b34801561035857600080fd5b50610373600480360381019061036e9190612477565b610dfe565b005b34801561038157600080fd5b5061038a6111d6565b604051610397919061233c565b60405180910390f35b6103ba60048036038101906103b591906123bc565b6111fc565b005b3480156103c857600080fd5b506103e360048036038101906103de91906122a7565b611542565b6040516103f0919061221a565b60405180910390f35b34801561040557600080fd5b50610420600480360381019061041b91906122a7565b61155a565b60405161042d919061257b565b60405180910390f35b34801561044257600080fd5b5061045d6004803603810190610458919061259d565b6115fa565b005b34801561046b57600080fd5b506104866004803603810190610481919061270d565b611772565b604051610493919061233c565b60405180910390f35b3480156104a857600080fd5b506104c360048036038101906104be9190612756565b6117bb565b005b3480156104d157600080fd5b506104da6119af565b005b3480156104e857600080fd5b5061050360048036038101906104fe91906122a7565b611b38565b005b600a5481565b600560009054906101000a900473ffffffffffffffffffffffffffffffffffffffff1673ffffffffffffffffffffffffffffffffffffffff163373ffffffffffffffffffffffffffffffffffffffff161461059b576040517f08c379a0000000000000000000000000000000000000000000000000000000008152600401610592906127e2565b60405180910390fd5b6000600160008373ffffffffffffffffffffffffffffffffffffffff1673ffffffffffffffffffffffffffffffffffffffff168152602001908152602001600020541161061d576040517f08c379a00000000000000000000000000000000000000000000000000000000081526004016106149061284e565b60405180910390fd5b60006064600854600160008573ffffffffffffffffffffffffffffffffffffffff1673ffffffffffffffffffffffffffffffffffffffff1681526020019081526020016000205461066e919061289d565b610678919061290e565b905080600160008473ffffffffffffffffffffffffffffffffffffffff1673ffffffffffffffffffffffffffffffffffffffff16815260200190815260200160002060008282546106c9919061293f565b92505081905550600560009054906101000a900473ffffffffffffffffffffffffffffffffffffffff1673ffffffffffffffffffffffffffffffffffffffff166108fc829081150290604051600060405180830381858888f19350505050158015610738573d6000803e3d6000fd5b508173ffffffffffffffffffffffffffffffffffffffff167ffa37b5e8ddad169e37000eda5f29f2d1b34e92f95c9327fc7d39ba2e8b8d826f8260405161077f919061221a565b60405180910390a25050565b600b5481565b6000803373ffffffffffffffffffffffffffffffffffffffff1673ffffffffffffffffffffffffffffffffffffffff16815260200190815260200160002060030160009054906101000a900460ff1661081f576040517f08c379a0000000000000000000000000000000000000000000000000000000008152600401610816906129bf565b60405180910390fd5b806000803373ffffffffffffffffffffffffffffffffffffffff1673ffffffffffffffffffffffffffffffffffffffff1681526020019081526020016000206002015410156108a3576040517f08c379a000000000000000000000000000000000000000000000000000000000815260040161089a90612a2b565b60405180910390fd5b806000803373ffffffffffffffffffffffffffffffffffffffff1673ffffffffffffffffffffffffffffffffffffffff16815260200190815260200160002060020160008282546108f4919061293f565b925050819055503373ffffffffffffffffffffffffffffffffffffffff166108fc829081150290604051600060405180830381858888f19350505050158015610941573d6000803e3d6000fd5b503373ffffffffffffffffffffffffffffffffffffffff167f7fcf532c15f0a6db0bd6d0e038bea71d30d808c7d98cb3bf7268a95bf5081b6582604051610988919061221a565b60405180910390a250565b600660009054906101000a900473ffffffffffffffffffffffffffffffffffffffff1681565b60095481565b60026020528060005260406000206000915090505481565b600073ffffffffffffffffffffffffffffffffffffffff1660038383604051610a01929190612a7b565b908152602001604051809103902060009054906101000a900473ffffffffffffffffffffffffffffffffffffffff1673ffffffffffffffffffffffffffffffffffffffff1614610a86576040517f08c379a0000000000000000000000000000000000000000000000000000000008152600401610a7d90612ae0565b60405180910390fd5b6000600460003373ffffffffffffffffffffffffffffffffffffffff1673ffffffffffffffffffffffffffffffffffffffff1681526020019081526020016000208054610ad290612b2f565b905014610b14576040517f08c379a0000000000000000000000000000000000000000000000000000000008152600401610b0b90612bac565b60405180910390fd5b3360038383604051610b27929190612a7b565b908152602001604051809103902060006101000a81548173ffffffffffffffffffffffffffffffffffffffff021916908373ffffffffffffffffffffffffffffffffffffffff1602179055508181600460003373ffffffffffffffffffffffffffffffffffffffff1673ffffffffffffffffffffffffffffffffffffffff1681526020019081526020016000209182610bc1929190612d83565b505050565b60006020528060005260406000206000915090508060000160009054906101000a900473ffffffffffffffffffffffffffffffffffffffff16908060010154908060020154908060030160009054906101000a900460ff16908060030160019054906101000a900473ffffffffffffffffffffffffffffffffffffffff16905085565b600560009054906101000a900473ffffffffffffffffffffffffffffffffffffffff1673ffffffffffffffffffffffffffffffffffffffff163373ffffffffffffffffffffffffffffffffffffffff1614610cd9576040517f08c379a0000000000000000000000000000000000000000000000000000000008152600401610cd0906127e2565b60405180910390fd5b60006064600547610cea919061289d565b610cf4919061290e565b9050600760009054906101000a900473ffffffffffffffffffffffffffffffffffffffff1673ffffffffffffffffffffffffffffffffffffffff166108fc829081150290604051600060405180830381858888f19350505050158015610d5e573d6000803e3d6000fd5b50600760009054906101000a900473ffffffffffffffffffffffffffffffffffffffff1673ffffffffffffffffffffffffffffffffffffffff167ffa37b5e8ddad169e37000eda5f29f2d1b34e92f95c9327fc7d39ba2e8b8d826f82604051610dc7919061221a565b60405180910390a250565b60085481565b600560009054906101000a900473ffffffffffffffffffffffffffffffffffffffff1681565b600560009054906101000a900473ffffffffffffffffffffffffffffffffffffffff1673ffffffffffffffffffffffffffffffffffffffff163373ffffffffffffffffffffffffffffffffffffffff1614610e8e576040517f08c379a0000000000000000000000000000000000000000000000000000000008152600401610e85906127e2565b60405180910390fd5b60008311610ed1576040517f08c379a0000000000000000000000000000000000000000000000000000000008152600401610ec890612e9f565b60405180910390fd5b6000808573ffffffffffffffffffffffffffffffffffffffff1673ffffffffffffffffffffffffffffffffffffffff16815260200190815260200160002060030160009054906101000a900460ff1615610f60576040517f08c379a0000000000000000000000000000000000000000000000000000000008152600401610f5790612f0b565b60405180910390fd5b600060038383604051610f74929190612a7b565b908152602001604051809103902060009054906101000a900473ffffffffffffffffffffffffffffffffffffffff1690506040518060a001604052808673ffffffffffffffffffffffffffffffffffffffff168152602001858152602001600081526020016001151581526020018273ffffffffffffffffffffffffffffffffffffffff168152506000808773ffffffffffffffffffffffffffffffffffffffff1673ffffffffffffffffffffffffffffffffffffffff16815260200190815260200160002060008201518160000160006101000a81548173ffffffffffffffffffffffffffffffffffffffff021916908373ffffffffffffffffffffffffffffffffffffffff160217905550602082015181600101556040820151816002015560608201518160030160006101000a81548160ff02191690831515021790555060808201518160030160016101000a81548173ffffffffffffffffffffffffffffffffffffffff021916908373ffffffffffffffffffffffffffffffffffffffff1602179055509050508473ffffffffffffffffffffffffffffffffffffffff167f9936746a4565f9766fa768f88f56a7487c78780ac179562773d1c75c5269537e85604051611145919061221a565b60405180910390a28473ffffffffffffffffffffffffffffffffffffffff167f4bc11be5e9e3dacb74af3b63ef3dfbb1901a94f695ecf1b9a1e499a9ccd1ef2a60405160405180910390a2600073ffffffffffffffffffffffffffffffffffffffff168173ffffffffffffffffffffffffffffffffffffffff16146111cf576111ce8185611d6c565b5b5050505050565b600760009054906101000a900473ffffffffffffffffffffffffffffffffffffffff1681565b6000341161123f576040517f08c379a000000000000000000000000000000000000000000000000000000000815260040161123690612e9f565b60405180910390fd5b6000803373ffffffffffffffffffffffffffffffffffffffff1673ffffffffffffffffffffffffffffffffffffffff16815260200190815260200160002060030160009054906101000a900460ff16156112ce576040517f08c379a00000000000000000000000000000000000000000000000000000000081526004016112c590612f0b565b60405180910390fd5b6000600383836040516112e2929190612a7b565b908152602001604051809103902060009054906101000a900473ffffffffffffffffffffffffffffffffffffffff1690506040518060a001604052803373ffffffffffffffffffffffffffffffffffffffff168152602001348152602001600081526020016001151581526020018273ffffffffffffffffffffffffffffffffffffffff168152506000803373ffffffffffffffffffffffffffffffffffffffff1673ffffffffffffffffffffffffffffffffffffffff16815260200190815260200160002060008201518160000160006101000a81548173ffffffffffffffffffffffffffffffffffffffff021916908373ffffffffffffffffffffffffffffffffffffffff160217905550602082015181600101556040820151816002015560608201518160030160006101000a81548160ff02191690831515021790555060808201518160030160016101000a81548173ffffffffffffffffffffffffffffffffffffffff021916908373ffffffffffffffffffffffffffffffffffffffff1602179055509050503373ffffffffffffffffffffffffffffffffffffffff167f9936746a4565f9766fa768f88f56a7487c78780ac179562773d1c75c5269537e346040516114b3919061221a565b60405180910390a23373ffffffffffffffffffffffffffffffffffffffff167f4bc11be5e9e3dacb74af3b63ef3dfbb1901a94f695ecf1b9a1e499a9ccd1ef2a60405160405180910390a2600073ffffffffffffffffffffffffffffffffffffffff168173ffffffffffffffffffffffffffffffffffffffff161461153d5761153c8134611d6c565b5b505050565b60016020528060005260406000206000915090505481565b6004602052806000526040600020600091509050805461157990612b2f565b80601f01602080910402602001604051908101604052809291908181526020018280546115a590612b2f565b80156115f25780601f106115c7576101008083540402835291602001916115f2565b820191906000526020600020905b8154815290600101906020018083116115d557829003601f168201915b505050505081565b600560009054906101000a900473ffffffffffffffffffffffffffffffffffffffff1673ffffffffffffffffffffffffffffffffffffffff163373ffffffffffffffffffffffffffffffffffffffff161461168a576040517f08c379a0000000000000000000000000000000000000000000000000000000008152600401611681906127e2565b60405180910390fd5b6000808373ffffffffffffffffffffffffffffffffffffffff1673ffffffffffffffffffffffffffffffffffffffff16815260200190815260200160002060030160009054906101000a900460ff16611718576040517f08c379a000000000000000000000000000000000000000000000000000000000815260040161170f90612f77565b60405180910390fd5b80600160008473ffffffffffffffffffffffffffffffffffffffff1673ffffffffffffffffffffffffffffffffffffffff16815260200190815260200160002060008282546117679190612f97565b925050819055505050565b6003818051602081018201805184825260208301602085012081835280955050505050506000915054906101000a900473ffffffffffffffffffffffffffffffffffffffff1681565b600560009054906101000a900473ffffffffffffffffffffffffffffffffffffffff1673ffffffffffffffffffffffffffffffffffffffff163373ffffffffffffffffffffffffffffffffffffffff161461184b576040517f08c379a0000000000000000000000000000000000000000000000000000000008152600401611842906127e2565b60405180910390fd5b600073ffffffffffffffffffffffffffffffffffffffff168273ffffffffffffffffffffffffffffffffffffffff16036118ba576040517f08c379a00000000000000000000000000000000000000000000000000000000081526004016118b190613017565b60405180910390fd5b600073ffffffffffffffffffffffffffffffffffffffff168173ffffffffffffffffffffffffffffffffffffffff1603611929576040517f08c379a000000000000000000000000000000000000000000000000000000000815260040161192090613083565b60405180910390fd5b81600660006101000a81548173ffffffffffffffffffffffffffffffffffffffff021916908373ffffffffffffffffffffffffffffffffffffffff16021790555080600760006101000a81548173ffffffffffffffffffffffffffffffffffffffff021916908373ffffffffffffffffffffffffffffffffffffffff1602179055505050565b600560009054906101000a900473ffffffffffffffffffffffffffffffffffffffff1673ffffffffffffffffffffffffffffffffffffffff163373ffffffffffffffffffffffffffffffffffffffff1614611a3f576040517f08c379a0000000000000000000000000000000000000000000000000000000008152600401611a36906127e2565b60405180910390fd5b60006064602d47611a50919061289d565b611a5a919061290e565b9050600660009054906101000a900473ffffffffffffffffffffffffffffffffffffffff1673ffffffffffffffffffffffffffffffffffffffff166108fc829081150290604051600060405180830381858888f19350505050158015611ac4573d6000803e3d6000fd5b50600660009054906101000a900473ffffffffffffffffffffffffffffffffffffffff1673ffffffffffffffffffffffffffffffffffffffff167ffa37b5e8ddad169e37000eda5f29f2d1b34e92f95c9327fc7d39ba2e8b8d826f82604051611b2d919061221a565b60405180910390a250565b600560009054906101000a900473ffffffffffffffffffffffffffffffffffffffff1673ffffffffffffffffffffffffffffffffffffffff163373ffffffffffffffffffffffffffffffffffffffff1614611bc8576040517f08c379a0000000000000000000000000000000000000000000000000000000008152600401611bbf906127e2565b60405180910390fd5b6000600160008373ffffffffffffffffffffffffffffffffffffffff1673ffffffffffffffffffffffffffffffffffffffff1681526020019081526020016000205411611c4a576040517f08c379a0000000000000000000000000000000000000000000000000000000008152600401611c419061284e565b60405180910390fd5b6000600160008373ffffffffffffffffffffffffffffffffffffffff1673ffffffffffffffffffffffffffffffffffffffff1681526020019081526020016000205490506000600160008473ffffffffffffffffffffffffffffffffffffffff1673ffffffffffffffffffffffffffffffffffffffff168152602001908152602001600020819055508173ffffffffffffffffffffffffffffffffffffffff166108fc829081150290604051600060405180830381858888f19350505050158015611d19573d6000803e3d6000fd5b508173ffffffffffffffffffffffffffffffffffffffff167ffa37b5e8ddad169e37000eda5f29f2d1b34e92f95c9327fc7d39ba2e8b8d826f82604051611d60919061221a565b60405180910390a25050565b600082905060008060008373ffffffffffffffffffffffffffffffffffffffff1673ffffffffffffffffffffffffffffffffffffffff16815260200190815260200160002060030160019054906101000a900473ffffffffffffffffffffffffffffffffffffffff16905060008060008373ffffffffffffffffffffffffffffffffffffffff1673ffffffffffffffffffffffffffffffffffffffff16815260200190815260200160002060030160019054906101000a900473ffffffffffffffffffffffffffffffffffffffff169050600073ffffffffffffffffffffffffffffffffffffffff168373ffffffffffffffffffffffffffffffffffffffff1614611f7c576000606460095486611e83919061289d565b611e8d919061290e565b905080600260008673ffffffffffffffffffffffffffffffffffffffff1673ffffffffffffffffffffffffffffffffffffffff1681526020019081526020016000206000828254611ede9190612f97565b925050819055508373ffffffffffffffffffffffffffffffffffffffff166108fc829081150290604051600060405180830381858888f19350505050158015611f2b573d6000803e3d6000fd5b508373ffffffffffffffffffffffffffffffffffffffff167f050bae3eeefac62a4ee36c766f4f426f09edf96ae8fb3034ebbf961e4acc78e282604051611f72919061221a565b60405180910390a2505b600073ffffffffffffffffffffffffffffffffffffffff168273ffffffffffffffffffffffffffffffffffffffff16146120bb5760006064600a5486611fc2919061289d565b611fcc919061290e565b905080600260008573ffffffffffffffffffffffffffffffffffffffff1673ffffffffffffffffffffffffffffffffffffffff168152602001908152602001600020600082825461201d9190612f97565b925050819055508273ffffffffffffffffffffffffffffffffffffffff166108fc829081150290604051600060405180830381858888f1935050505015801561206a573d6000803e3d6000fd5b508273ffffffffffffffffffffffffffffffffffffffff167f050bae3eeefac62a4ee36c766f4f426f09edf96ae8fb3034ebbf961e4acc78e2826040516120b1919061221a565b60405180910390a2505b600073ffffffffffffffffffffffffffffffffffffffff168173ffffffffffffffffffffffffffffffffffffffff16146121fa5760006064600b5486612101919061289d565b61210b919061290e565b905080600260008473ffffffffffffffffffffffffffffffffffffffff1673ffffffffffffffffffffffffffffffffffffffff168152602001908152602001600020600082825461215c9190612f97565b925050819055508173ffffffffffffffffffffffffffffffffffffffff166108fc829081150290604051600060405180830381858888f193505050501580156121a9573d6000803e3d6000fd5b508173ffffffffffffffffffffffffffffffffffffffff167f050bae3eeefac62a4ee36c766f4f426f09edf96ae8fb3034ebbf961e4acc78e2826040516121f0919061221a565b60405180910390a2505b5050505050565b6000819050919050565b61221481612201565b82525050565b600060208201905061222f600083018461220b565b92915050565b6000604051905090565b600080fd5b600080fd5b600073ffffffffffffffffffffffffffffffffffffffff82169050919050565b600061227482612249565b9050919050565b61228481612269565b811461228f57600080fd5b50565b6000813590506122a18161227b565b92915050565b6000602082840312156122bd576122bc61223f565b5b60006122cb84828501612292565b91505092915050565b6122dd81612201565b81146122e857600080fd5b50565b6000813590506122fa816122d4565b92915050565b6000602082840312156123165761231561223f565b5b6000612324848285016122eb565b91505092915050565b61233681612269565b82525050565b6000602082019050612351600083018461232d565b92915050565b600080fd5b600080fd5b600080fd5b60008083601f84011261237c5761237b612357565b5b8235905067ffffffffffffffff8111156123995761239861235c565b5b6020830191508360018202830111156123b5576123b4612361565b5b9250929050565b600080602083850312156123d3576123d261223f565b5b600083013567ffffffffffffffff8111156123f1576123f0612244565b5b6123fd85828601612366565b92509250509250929050565b60008115159050919050565b61241e81612409565b82525050565b600060a082019050612439600083018861232d565b612446602083018761220b565b612453604083018661220b565b6124606060830185612415565b61246d608083018461232d565b9695505050505050565b600080600080606085870312156124915761249061223f565b5b600061249f87828801612292565b94505060206124b0878288016122eb565b935050604085013567ffffffffffffffff8111156124d1576124d0612244565b5b6124dd87828801612366565b925092505092959194509250565b600081519050919050565b600082825260208201905092915050565b60005b8381101561252557808201518184015260208101905061250a565b60008484015250505050565b6000601f19601f8301169050919050565b600061254d826124eb565b61255781856124f6565b9350612567818560208601612507565b61257081612531565b840191505092915050565b600060208201905081810360008301526125958184612542565b905092915050565b600080604083850312156125b4576125b361223f565b5b60006125c285828601612292565b92505060206125d3858286016122eb565b9150509250929050565b600080fd5b7f4e487b7100000000000000000000000000000000000000000000000000000000600052604160045260246000fd5b61261a82612531565b810181811067ffffffffffffffff82111715612639576126386125e2565b5b80604052505050565b600061264c612235565b90506126588282612611565b919050565b600067ffffffffffffffff821115612678576126776125e2565b5b61268182612531565b9050602081019050919050565b82818337600083830152505050565b60006126b06126ab8461265d565b612642565b9050828152602081018484840111156126cc576126cb6125dd565b5b6126d784828561268e565b509392505050565b600082601f8301126126f4576126f3612357565b5b813561270484826020860161269d565b91505092915050565b6000602082840312156127235761272261223f565b5b600082013567ffffffffffffffff81111561274157612740612244565b5b61274d848285016126df565b91505092915050565b6000806040838503121561276d5761276c61223f565b5b600061277b85828601612292565b925050602061278c85828601612292565b9150509250929050565b7f4e6f7420617574686f72697a6564000000000000000000000000000000000000600082015250565b60006127cc600e836124f6565b91506127d782612796565b602082019050919050565b600060208201905081810360008301526127fb816127bf565b9050919050565b7f4e6f2070726f66697473207265636f7264656400000000000000000000000000600082015250565b60006128386013836124f6565b915061284382612802565b602082019050919050565b600060208201905081810360008301526128678161282b565b9050919050565b7f4e487b7100000000000000000000000000000000000000000000000000000000600052601160045260246000fd5b60006128a882612201565b91506128b383612201565b92508282026128c181612201565b915082820484148315176128d8576128d761286e565b5b5092915050565b7f4e487b7100000000000000000000000000000000000000000000000000000000600052601260045260246000fd5b600061291982612201565b915061292483612201565b925082612934576129336128df565b5b828204905092915050565b600061294a82612201565b915061295583612201565b925082820390508181111561296d5761296c61286e565b5b92915050565b7f4e6f7420616e20696e766573746f720000000000000000000000000000000000600082015250565b60006129a9600f836124f6565b91506129b482612973565b602082019050919050565b600060208201905081810360008301526129d88161299c565b9050919050565b7f496e73756666696369656e742062616c616e6365000000000000000000000000600082015250565b6000612a156014836124f6565b9150612a20826129df565b602082019050919050565b60006020820190508181036000830152612a4481612a08565b9050919050565b600081905092915050565b6000612a628385612a4b565b9350612a6f83858461268e565b82840190509392505050565b6000612a88828486612a56565b91508190509392505050565b7f436f646520616c726561647920696e2075736500000000000000000000000000600082015250565b6000612aca6013836124f6565b9150612ad582612a94565b602082019050919050565b60006020820190508181036000830152612af981612abd565b9050919050565b7f4e487b7100000000000000000000000000000000000000000000000000000000600052602260045260246000fd5b60006002820490506001821680612b4757607f821691505b602082108103612b5a57612b59612b00565b5b50919050565b7f596f7520616c72656164792072656769737465726564206120636f6465000000600082015250565b6000612b96601d836124f6565b9150612ba182612b60565b602082019050919050565b60006020820190508181036000830152612bc581612b89565b9050919050565b600082905092915050565b60008190508160005260206000209050919050565b60006020601f8301049050919050565b600082821b905092915050565b600060088302612c397fffffffffffffffffffffffffffffffffffffffffffffffffffffffffffffffff82612bfc565b612c438683612bfc565b95508019841693508086168417925050509392505050565b6000819050919050565b6000612c80612c7b612c7684612201565b612c5b565b612201565b9050919050565b6000819050919050565b612c9a83612c65565b612cae612ca682612c87565b848454612c09565b825550505050565b600090565b612cc3612cb6565b612cce818484612c91565b505050565b5b81811015612cf257612ce7600082612cbb565b600181019050612cd4565b5050565b601f821115612d3757612d0881612bd7565b612d1184612bec565b81016020851015612d20578190505b612d34612d2c85612bec565b830182612cd3565b50505b505050565b600082821c905092915050565b6000612d5a60001984600802612d3c565b1980831691505092915050565b6000612d738383612d49565b9150826002028217905092915050565b612d8d8383612bcc565b67ffffffffffffffff811115612da657612da56125e2565b5b612db08254612b2f565b612dbb828285612cf6565b6000601f831160018114612dea5760008415612dd8578287013590505b612de28582612d67565b865550612e4a565b601f198416612df886612bd7565b60005b82811015612e2057848901358255600182019150602085019450602081019050612dfb565b86831015612e3d5784890135612e39601f891682612d49565b8355505b6001600288020188555050505b50505050505050565b7f4465706f736974206d7573742062652067726561746572207468616e20300000600082015250565b6000612e89601e836124f6565b9150612e9482612e53565b602082019050919050565b60006020820190508181036000830152612eb881612e7c565b9050919050565b7f416c726561647920696e76657374656400000000000000000000000000000000600082015250565b6000612ef56010836124f6565b9150612f0082612ebf565b602082019050919050565b60006020820190508181036000830152612f2481612ee8565b9050919050565b7f496e766573746f72206e6f7420666f756e640000000000000000000000000000600082015250565b6000612f616012836124f6565b9150612f6c82612f2b565b602082019050919050565b60006020820190508181036000830152612f9081612f54565b9050919050565b6000612fa282612201565b9150612fad83612201565b9250828201905080821115612fc557612fc461286e565b5b92915050565b7f496e76616c69642041492057616c6c6574000000000000000000000000000000600082015250565b60006130016011836124f6565b915061300c82612fcb565b602082019050919050565b6000602082019050818103600083015261303081612ff4565b9050919050565b7f496e76616c696420466f756e6465722057616c6c657400000000000000000000600082015250565b600061306d6016836124f6565b915061307882613037565b602082019050919050565b6000602082019050818103600083015261309c81613060565b905091905056fea2646970667358221220db2ff3b50a55d3dd3a060c87d1969411d0b3b42c53fdc8fe8cc6d50aedaa465964736f6c634300081c0033",
  "linkReferences": {},
  "deployedLinkReferences": {}
}